:020000040000FA
:1000000000008A150A12DC29F200030E8301F100B8
:100010000A088A01F000040883160313E70083121C
:100020000317960A1608053A031D2D288A110A128D
:1000300056208A110A128A150A12DD258A110A121F
:100040008A110A12E5268A110A128A110A129F24BD
:100050008A110A128312031796018A150A12C327FE
:100060008A110A1283160313E6006608031D3E2850
:100070008A150A1200208A110A1243288A150A12C8
:10008000FB228A110A12831203130B11D83081004C
:1000900083160313670883120313840070088A0011
:1000A0008301710E8300F20E720E09008312031396
:1000B000D401D501D601D701D80183120313570803
:1000C000623ED9000030DA0058080318580FDA07EA
:1000D0005708623EDB000030DC0058080318580F58
:1000E000DC07DB0A0319DC0A5B08831203138400B4
:1000F0008313831203135C188317831203130008FE
:1001000083120313DD005908831203138400831341
:10011000831203135A1883175D0883120313800098
:10012000043083120313540203180B290030831286
:1001300003138A00A430831203135407031CA3285B
:10014000831203138A0A8200A828C128DA28F32818
:100150000030FF0001308A110A12C6258A110A12E6
:1001600083120313D9005B088312031384008313E3
:10017000831203135C18831759088312031380003A
:100180000B290130FF0001308A110A12C6258A119D
:100190000A1283120313D9005B088312031384002D
:1001A0008313831203135C188317590883120313F4
:1001B00080000B290230FF0001308A110A12C62587
:1001C0008A110A1283120313D9005B0883120313E6
:1001D00084008313831203135C1883175908831256
:1001E000031380000B290330FF0001308A110A122B
:1001F000C6258A110A1283120313D9005B088312E1
:10020000031384008313831203135C1883175908A4
:10021000831203138000831203135508623ED90032
:100220000030DA0056080318560FDA070230590773
:10023000DB00DC01DC0D5A08DC075B0883120313CA
:1002400084008313831203135C1883178312031330
:10025000000883120313DD0004305D020318052A31
:100260000130831203138A003E30831203135D07AB
:10027000031C3D29831203138A0A820042297D2927
:10028000A629E1298312031359088312031384005A
:100290008313831203135A1883178312031300085E
:1002A00083120313DD005D08031D052A0130590781
:1002B000DD00DE01DE0D5A08DE075D088312031340
:1002C00084008313831203135E18831783120313AE
:1002D000000883120313DF005F08031D052A5B0873
:1002E0008312031384008313831203135C18831790
:1002F0000130831203138000052A01308312031397
:100300005907DD00DE01DE0D5A08DE075D088312A5
:10031000031384008313831203135E18831783125D
:100320000313000883120313DF005F08031D052A6F
:100330005B088312031384008313831203135C1876
:1003400083170230831203138000052A83120313DC
:1003500059088312031384008313831203135A185A
:10036000831783120313000883120313DD00013A7D
:10037000031D052A01305907DD00DE01DE0D5A0894
:10038000DE075D08831203138400831383120313B3
:100390005E18831783120313000883120313DF0010
:1003A000013A031D052A5B0883120313840083139B
:1003B000831203135C188317033083120313800026
:1003C000052A83120313D90A0319DA0A590883127A
:1003D000031384008313831203135A1883178312A1
:1003E0000313000883120313DD00013A031D052ADD
:1003F0005B088312031384008313831203135C18B6
:100400008317003083120313800003308312031319
:10041000D5070318D60A0330D7070318D80AD40A19
:1004200003305402031C5D28080083120313A80044
:100430007F08A9007E08AA00053028020318592B5E
:100440000230831203138A002E308312031328070D
:10045000031C2D2A831203138A0A8200332A6E2A70
:10046000A92AE42A1F2B831203130130AB002908A9
:10047000A800A81B452A003C03194E2A8312031327
:10048000AB0D013E031C3E2A4E2A031083120313B8
:10049000AB1B0314AB0C013E031C452A8312031350
:1004A0002B09A80083120313050883120313AB0062
:1004B000A8052A08AB002908003C0319652A831205
:1004C0000313AB0D013E031C5F2A831203132B0899
:1004D000AC002804831203138500592B01308312CA
:1004E0000313AB002908A800A81B802A003C0319AD
:1004F000892A83120313AB0D013E031C792A892A32
:10050000031083120313AB1B0314AB0C013E031C3B
:10051000802A831203132B09A800831203130608F1
:1005200083120313AB00A8052A08AB002908003C7E
:100530000319A02A83120313AB0D013E031C9A2A50
:10054000831203132B08AC002804831203138600C4
:10055000592B013083120313AB002908A800A81BF4
:10056000BB2A003C0319C42A83120313AB0D013EBE
:10057000031CB42AC42A031083120313AB1B0314F5
:10058000AB0C013E031CBB2A831203132B09A800EA
:1005900083120313070883120313AB00A8052A086C
:1005A000AB002908003C0319DB2A83120313AB0DAF
:1005B000013E031CD52A831203132B08AC00280428
:1005C000831203138700592B013083120313AB00EE
:1005D0002908A800A81BF62A003C0319FF2A831249
:1005E0000313AB0D013E031CEF2AFF2A03108312F5
:1005F0000313AB1B0314AB0C013E031CF62A83123E
:1006000003132B09A8008312031308088312031392
:10061000AB00A8052A08AB002908003C0319162BDB
:1006200083120313AB0D013E031C102B8312031323
:100630002B08AC002804831203138800592B0130C7
:1006400083120313AB002908A800A81B312B003C20
:1006500003193A2B83120313AB0D013E031C2A2B03
:100660003A2B031083120313AB1B0314AB0C013E94
:10067000031C312B831203132B09A80083120313CD
:10068000090883120313AB00A8052A08AB00290848
:10069000003C0319512B83120313AB0D013E031CC5
:1006A0004B2B831203132B08A90028048312031376
:1006B0008900080083120313A0007F08A1007E08B0
:1006C000A2000530200203189E2C0330831203136E
:1006D0008A007330831203132007031C722B8312CA
:1006E00003138A0A8200782BB32BEE2B292C642C5F
:1006F000831203130130A3002108A000A01B8A2B42
:10070000003C0319932B83120313A30D013E031C1A
:10071000832B932B031083120313A31B0314A30C2B
:10072000013E031C8A2B831203132309A0008316A6
:100730000313050883120313A300A0052208A300D6
:100740002108003C0319AA2B83120313A30D013EB9
:10075000031CA42B831203132308A4002004831674
:10076000031385009E2C013083120313A30021087C
:10077000A000A01BC52B003C0319CE2B8312031332
:10078000A30D013E031CBE2BCE2B031083120313BB
:10079000A31B0314A30C013E031CC52B83120313DC
:1007A0002309A00083160313060883120313A30072
:1007B000A0052208A3002108003C0319E52B8312A1
:1007C0000313A30D013E031CDF2B83120313230825
:1007D000A40020048316031386009E2C013083128C
:1007E0000313A3002108A000A01B002C003C031948
:1007F000092C83120313A30D013E031CF92B092CB2
:10080000031083120313A31B0314A30C013E031C48
:10081000002C831203132309A00083160313070877
:1008200083120313A300A0052208A3002108003CA3
:100830000319202C83120313A30D013E031C1A2C51
:10084000831203132308A4002004831603138700D4
:100850009E2C013083120313A3002108A000A01BCB
:100860003B2C003C0319442C83120313A30D013EBF
:10087000031C342C442C031083120313A31B0314F6
:10088000A30C013E031C3B2C831203132309A0007D
:1008900083160313080883120313A300A00522087C
:1008A000A3002108003C03195B2C83120313A30D42
:1008B000013E031C552C831203132308A4002004BB
:1008C0008316031388009E2C013083120313A300A8
:1008D0002108A000A01B762C003C03197F2C83125A
:1008E0000313A30D013E031C6F2C7F2C03108312F6
:1008F0000313A31B0314A30C013E031C762C8312C9
:1009000003132309A000831603130908831203139A
:10091000A300A0052208A3002108003C0319962C7F
:1009200083120313A30D013E031C902C83120313A7
:100930002308A100200483160313890008008A15E8
:100940000A12C3278A110A1283160313E0006008F3
:10095000031D1E2D83160313EC018A150A12CF27DF
:100960008A110A1283160313E0003C3A031DCC2CB3
:10097000831603136B080319CC2C1830831603134A
:100980006A020318C52CEA0AC82C83160313EA016D
:1009900083160313EB01DB2C8A150A12CF278A1169
:1009A0000A1283160313E0003C3A0319DB2C0130D2
:1009B00083160313EB0083160313E1010A30FD00D5
:1009C0000030FE00831603136A0883160313E00049
:1009D000FF0000308A150A12CF238A110A128316EB
:1009E0000313E1007F08E000E200FF0000308A15F9
:1009F0000A1247278A110A1283160313E1010A30EB
:100A0000FD000030FE00831603136A0883160313EB
:100A1000E000FF0000308A150A1235248A110A12FC
:100A200083160313E1007F08E000E200FF000130BD
:100A30008A150A1247278A110A12C52D8A150A1229
:100A4000C3278A110A1283160313E000013A031D1B
:100A5000C52D83160313EC0A01308A150A120527E7
:100A60008A110A1283160313E000013A031D432D75
:100A7000831603136A08031D402D1730EA00432D27
:100A800083160313EA0300308A150A1205278A1118
:100A90000A1283160313E000013A031D5A2D831630
:100AA00003136A08173A031D572DEA015A2D8316BE
:100AB0000313EA0A831603136D080A3A0319A32DD8
:100AC00083160313E1010A30FD000030FE00831697
:100AD00003136D0883160313E000FF0000308A152E
:100AE0000A12CF238A110A1283160313E1007F082A
:100AF000E000E200FF0000308A150A1247278A1141
:100B00000A1283160313E1010A30FD000030FE00D3
:100B1000831603136D0883160313E000FF000030F3
:100B20008A150A1235248A110A1283160313E1006A
:100B30007F08E000E200FF0001308A150A12472713
:100B40008A110A12B72D831603136D08FF000030B7
:100B50008A150A1247278A110A12831603136D0891
:100B6000FF0001308A150A1247278A110A128316DC
:100B700003136C080A3A031DC52D8A150A1277273C
:100B80008A110A1283160313EC010800831203135F
:100B9000B4007F08B500B601053034020318E12E19
:100BA0000530831203138A00DE30831203133407E7
:100BB000031CDD2D831203138A0A8200E32D162EF7
:100BC000492E7C2EAF2E003083120313B700013064
:100BD000B4003508003C0319F42D83120313B40D3F
:100BE000B70D013E031CED2D83120313050883127C
:100BF0000313B800B9013808B4050030B705370849
:100C0000B9003408B8003508003C0319112E031050
:100C100083120313B91B0314B90CB80C013E031C57
:100C2000072E831203133808B600E12E003083121A
:100C30000313B7000130B4003508003C0319272E18
:100C400083120313B40DB70D013E031C202E831233
:100C50000313060883120313B800B9013808B4055A
:100C60000030B7053708B9003408B8003508003C33
:100C70000319442E031083120313B91B0314B90C78
:100C8000B80C013E031C3A2E831203133808B60039
:100C9000E12E003083120313B7000130B400350891
:100CA000003C03195A2E83120313B40DB70D013EF5
:100CB000031C532E83120313070883120313B80077
:100CC000B9013808B4050030B7053708B900340851
:100CD000B8003508003C0319772E03108312031364
:100CE000B91B0314B90CB80C013E031C6D2E831202
:100CF00003133808B600E12E003083120313B70047
:100D00000130B4003508003C03198D2E8312031303
:100D1000B40DB70D013E031C862E83120313080881
:100D200083120313B800B9013808B4050030B705C1
:100D30003708B9003408B8003508003C0319AA2E5A
:100D4000031083120313B91B0314B90CB80C013E32
:100D5000031CA02E831203133808B600E12E0030C6
:100D600083120313B7000130B4003508003C0319A7
:100D7000C02E83120313B40DB70D013E031CB92E10
:100D800083120313090883120313B800B90138084A
:100D9000B4050030B7053708B9003408B800350885
:100DA000003C0319DD2E031083120313B91B031437
:100DB000B90CB80C013E031CD32E83120313380860
:100DC000B60083120313360808008A150A12C327D7
:100DD0008A110A1283160313E3006308031D542FBC
:100DE00083120313EE0A0319EF0A83160313EE01AD
:100DF000831203136E08323A031D112F6F08003A55
:100E0000031D112F3C3083120317100203180A2F01
:100E1000900A0D2F83120317900183120313EE0122
:100E2000EF0183160313E4010A30FD000030FE00D9
:100E300083120317100883160313E300FF0000302A
:100E40008A150A12CF238A110A1283160313E400AB
:100E50007F08E300E500FF0002308A150A124727E9
:100E60008A110A1283160313E4010A30FD000030D0
:100E7000FE0083120317100883160313E300FF001C
:100E800000308A150A1235248A110A1283160313B8
:100E9000E4007F08E300E500FF0003308A150A1232
:100EA00047278A110A12FF2F8A150A12C3278A11AF
:100EB0000A1283160313E300023A031DFF2F831661
:100EC0000313EE0A01308A150A1205278A110A1245
:100ED00083160313E300013A031D792F83120317CE
:100EE0001008031D762F3C309000792F83120317D2
:100EF000900300308A150A1205278A110A128316F8
:100F00000313E300013A031D902F83120317100807
:100F10003C3A031D8D2F9001902F83120317900AE6
:100F200083120313EE01EF018312031711080A3A2B
:100F30000319DD2F83160313E4010A30FD0000308E
:100F4000FE0083120317110883160313E300FF004A
:100F500000308A150A12CF238A110A12831603134E
:100F6000E4007F08E300E500FF0002308A150A1262
:100F700047278A110A1283160313E4010A30FD0081
:100F80000030FE0083120317110883160313E300D9
:100F9000FF0000308A150A1235248A110A128316BE
:100FA0000313E4007F08E300E500FF0003308A1527
:100FB0000A1247278A110A12F12F83120317110808
:100FC000FF0002308A150A1247278A110A1283127B
:100FD00003171108FF0003308A150A1247278A11E8
:100FE0000A12831603136E080A3A031DFF2F8A158F
:100FF0000A1289278A110A1283160313EE010800C8
:1010000083120317920A0030FF0002308A150A1279
:10101000F4248A150A120030FF0003308A150A12E0
:10102000F4248A150A120030FF0000308A150A12D3
:10103000F4248A150A120030FF0001308A150A12C2
:10104000F4248A150A12831203171208323A031D78
:101050002F2892018A150A129B278A150A128312D9
:1010600003171508013A031DC0288312031713083C
:10107000013A031D7F28831203171508DC3E8312F3
:101080000313C20000300318013EC300420883125C
:1010900003138400831383120313431883178312EB
:1010A0000313000883120313C400AC3EC2000030D7
:1010B0000318013EC3004208831203138400831304
:1010C0008312031343188317831203130008831238
:1010D0000313C40080304404C200FF0003308A15AB
:1010E0000A1226268A150A120130FF0083120317FE
:1010F00015088A150A12F4248A150A120029831287
:1011000003171508DC3E83120313C20000300318D6
:10111000013EC40042088312031384008313831228
:101120000313441883178312031300088312031355
:10113000C500AC3EC20000300318013EC4004208A6
:101140008312031384008313831203134418831739
:1011500083120313000883120313C500FF0003303A
:101160008A150A1226268A150A120130FF008312F8
:10117000031715088A150A12F4248A150A12002981
:10118000831203171508DC3E83120313C2000030DC
:101190000318013EC4004208831203138400831322
:1011A0008312031344188317831203130008831256
:1011B0000313C500AC3EC20000300318013EC4005A
:1011C0004208831203138400831383120313441809
:1011D000831783120313000883120313C500FF0053
:1011E00003308A150A1226268A150A120130FF00DA
:1011F0008312031715088A150A12F4248A150A1295
:10120000831203171508033A031D082995010B29BA
:1012100083120317950A080083120313CF007F0877
:10122000D00004304F0203185229093083120313EF
:101230008A002330831203134F07031C22298312D1
:1012400003138A0A8200272932293D2948290130BF
:10125000FE000030FF0001308A110A125A238A155D
:101260000A1252290130FE000130FF0001308A11BC
:101270000A125A238A150A1252290130FE0002303E
:10128000FF0001308A110A125A238A150A125229C4
:101290000130FE000330FF0001308A110A125A2388
:1012A0008A150A120330FF00831203134F088A15B0
:1012B0000A12DA268A150A1283120313D1007F0854
:1012C000CF00623ECF0051080318510F003ED100FD
:1012D00002304F07D200D301D30D5108D307520873
:1012E0008312031384008313831203135318831789
:1012F000500883120313800004308312031350023A
:101300000318DB290930831203138A0090308312FB
:1013100003135007031C8F29831203138A0A8200C8
:101320009429BA29BA299429831203134F088312E6
:10133000031384008313831203135118831701309E
:101340008312031380000130831203134F07D00070
:10135000D201D20D5108D207500883120313840022
:10136000831383120313521883170130831203135C
:101370008000DB29831203134F08831203138400B8
:10138000831383120313511883170030831203133E
:10139000800083120313CF0A0319D10A4F08831266
:1013A000031384008313831203135118831700302F
:1013B00083120313800008006730FE000B30FF002B
:1013C00080308A150A12A6268A150A12831603137C
:1013D000A1007F08A0006930A2000B30A300831693
:1013E00003132008A4002108A500FF30A007031C58
:1013F000A103250824040319742A04302207A40039
:10140000A501A50D2308A5072408FE002508FF0057
:1014100080308A150A12A6268A150A12831603132B
:10142000A7007F08A6002208FE002308FF008030E6
:101430008A150A12A6268A150A1283160313A90012
:10144000A5007F08A400A80002302207A400A5017F
:10145000A50D2308A5072408FE002508FF008030FD
:101460008A150A12A6268A150A1283160313A500E6
:10147000AB007F08AA00A400831603132608AA0065
:101480002708AB00FF30A607031CA7032B082A047C
:1014900003196D2A2808FE002908FF0080308A15EC
:1014A0000A12C7268A150A1283160313AA002408F3
:1014B00083120313840083138316031325188317E1
:1014C0002A0883120313800083160313A80A031942
:1014D000A90AA40A0319A50A3C2A06308316031395
:1014E000A2070318A30AEF298A150A12962C0800EE
:1014F00083120313BA007F08BB007E08BC000030D3
:10150000FF0003308A150A122D278A150A1283124A
:1015100003133C08AC3EBD0000300318013EBE0082
:101520003D088312031384008313831203133E18B0
:101530008317831203130008FF0003308A150A1271
:1015400026268A150A120430831203133A0203185E
:10155000E62A0A30831203138A00B730831203137A
:101560003A07031CB62A831203138A0A8200BB2A95
:10157000C62AD12ADC2A0030FE000230FF000030EB
:101580008A110A125A238A150A12E62A0030FE002E
:101590000330FF0000308A110A125A238A150A12FA
:1015A000E62A0030FE000430FF0000308A110A12E3
:1015B0005A238A150A12E62A0030FE000530FF0081
:1015C00000308A110A125A238A150A128312031351
:1015D0003B08FF003A088A150A12F4248A150A12F9
:1015E000831203133C08FF003A088A150A124727A2
:1015F0008A150A1208000030FF0002308A150A120C
:10160000F4248A150A120030FF0003308A150A12EA
:10161000F4248A150A120030FF0000308A150A12DD
:10162000F4248A150A120030FF0001308A150A12CC
:10163000F4248A150A12831203171408DC3E83125D
:101640000313BF0000300318013EC0003F0883129F
:101650000313840083138312031340188317831228
:101660000313000883120313C100AC3EBF00003017
:101670000318013EC0003F08831203138400831344
:101680008312031340188317831203130008831275
:101690000313C100FF0003308A150A1226268A159B
:1016A0000A120130FF008312031714088A150A1268
:1016B000F4248A150A12831203171408033A031D2F
:1016C000632B9401662B83120317940A08001134CC
:1016D0000034DD340F34E934003401340034DF34B5
:1016E0000F34EA34003401340034E0340F34EB3486
:1016F000003401340034E1340F34EC34003401346C
:101700000034E2340F34ED34003401340034E43476
:101710000F34EE34003401340034E5340F34103427
:10172000013401340034DB340F346E3400340234BD
:101730000034E6340F341134013401340034E7341A
:101740000F341234013401340034E8340F341334CC
:10175000013401340034D7340F34DC340034043421
:101760000034A7340F34AC3400340B340034E93483
:101770000F341434013401340034EA340F34153496
:10178000013401340034EB340F34163401340134A5
:101790000034EC340F341734013401340034831630
:1017A0000313B8007F08B7007E08BA007D08B900AF
:1017B0000314B81F0310BB01BB0D3B080319E82B32
:1017C0003709BC003809BD00BC0A0319BD0AEE2B5D
:1017D000831603133708BC003808BD0083160313B3
:1017E0003C08B7003D08B8000314BA1F0310BC0141
:1017F000BC0D3C080319042C3909BD003A09BE0090
:10180000BD0A0319BE0A0A2C831603133908BD004A
:101810003A08BE00831603133D08B900FD003E08D8
:10182000BA00FE003708FF0038088A150A126C2635
:101830008A150A1283160313B8007F08B7003C0804
:10184000BB063B0803192F2C3709BB003809B90028
:10185000BB0A0319B90A3B08FF003908342C831668
:1018600003133708FF003808080083160313C80065
:101870007F08C7007E08CA007D08C9000314C81F7E
:101880000310CB01CB0D4B0803194E2C4709CC009C
:101890004809CD00CC0A0319CD0A542C8316031332
:1018A0004708CC004808CD00831603134C08C70036
:1018B0004D08C8000314CA1F0310031C672C4909F4
:1018C000CC004A09CD00CC0A0319CD0A6D2C831631
:1018D00003134908CC004A08CD00831603134C08B3
:1018E000C900FD004D08CA00FE004708FF00480877
:1018F0008A150A1290258A150A1283160313C80046
:101900007F08C7004B080319902C4709CB004809F2
:10191000C900CB0A0319C90A4B08FF004908952CD6
:10192000831603134708FF00480808000030FF0033
:1019300001308A150A120C218A150A120030FF00A4
:1019400000308A150A120C218A150A120030FF0095
:1019500002308A150A120C218A150A120A30FE007A
:101960000030FF0000308A150A1278228A150A1208
:101970000A30FE000030FF0003308A150A12782278
:101980008A150A120A30FE000030FF0001308A1565
:101990000A1278228A150A120A30FE000030FF006F
:1019A00002308A150A1278228A150A1200308A1526
:1019B0000A12C7278A150A1214308A150A12CB2771
:1019C0008A150A1228308A150A12D3278A150A1294
:1019D0008A150A12BB278A150A128A150A12B2271B
:1019E0008A150A12F22C080083120313C9007F081B
:1019F000CA00043049020318422D0D30831203132C
:101A00008A000B30831203134907031C0A2D83122B
:101A100003138A0A82000F2D1C2D292D362D8312C7
:101A200003134A08FE000230FF0000308A110A1238
:101A300015228A150A12422D831203134A08FE004A
:101A40000330FF0000308A110A1215228A150A128B
:101A5000422D831203134A08FE000430FF000030B9
:101A60008A110A1215228A150A12422D83120313B3
:101A70004A08FE000530FF0000308A110A121522C4
:101A80008A150A12080083120313CD00CE01043018
:101A90004D0203188C2D0D30831203138A00593028
:101AA000831203134D07031C582D831203138A0A54
:101AB00082005D2D692D752D812D0230FF000030D3
:101AC0008A110A12C6258A150A1283120313CE0040
:101AD0008C2D0330FF0000308A110A12C6258A15AA
:101AE0000A1283120313CE008C2D0430FF00003045
:101AF0008A110A12C6258A150A1283120313CE0010
:101B00008C2D0530FF0000308A110A12C6258A1577
:101B10000A1283120313CE00831203134E08080027
:101B200083160313CF007F08CE007E08D1007D0806
:101B3000D000D201D3018316031351088039031D4D
:101B40000130D4005408031DBC2D0310D00DD10D5D
:101B500051084F02031DAE2D50084E020318B62D3A
:101B6000031083160313D10CD00CBC2D8316031362
:101B7000D30A5308D2009B2D8316031351084F023A
:101B8000031DC42D50084E02031CCE2D83160313D3
:101B90005008CE025108031C510FCF0203108316C8
:101BA0000313D10CD00C5208D300D2035308031DE9
:101BB000BC2D4E08FF004F080800033083160313A6
:101BC00069020318252E0D30831203138A00F130A9
:101BD000831603136907031CF02D831203138A0A6B
:101BE0008200F42D052E162E02308A150A120527C2
:101BF0008A150A1283160313E800013A031D252EE5
:101C0000013083160313E900252E02308A150A12CB
:101C100005278A150A1283160313E800013A031DEB
:101C2000252E023083160313E900252E02308A1573
:101C30000A1205278A150A1283160313E800013ACF
:101C4000031D252E83160313E901080083120313D5
:101C5000AD007F08AE00AF01003083120313B10066
:101C60000130B0002F08003C03193D2E83120313EE
:101C7000B00DB10D013E031C362E83120313B301C8
:101C80002E08B200B0050030B1053108B3003008AD
:101C9000B2002F08003C0319572E031083120313C0
:101CA000B31B0314B30CB20C013E031C4D2E831264
:101CB00003133208B000FE002F08FF002D088A1120
:101CC0000A1215228A150A1283120313AF0A08306A
:101CD0002F02031C2C2E080083160313C0007F085C
:101CE000BF007E08C2007D08C100C301C4011030DE
:101CF000C5008316031340088039031D0130C60058
:101D00000310BF0DC00D0310C30DC40D4608031D05
:101D1000431442084402031D8F2E41084302031C52
:101D20009A2E831603134108C3024208031C420F74
:101D3000C4023F14831603134503C600C5004608BA
:101D4000031D792E3F08FF0040080800003A0319E0
:101D5000AE2E803A0319B82EFF0100347E088400AD
:101D600083137F1883170008FF00840A0008080007
:101D70008A150A12D526FD00FE0FFF03FF0A8A15F9
:101D80000A12D526FC007D08FF007C080800003AF6
:101D90000319CE2E803A0319D52E00347E08840014
:101DA00083137F188317000808007F088A007E08C5
:101DB0008200080083160313D5007F08D600D701E0
:101DC000D801D90108308316031359020318FF2ED6
:101DD0000310D70DD80DD51FF62E0030DB005608A6
:101DE000DA00D7075B0803185B0FD80783160313C5
:101DF0005508DA0003105A0DD500D90AE22E8316D1
:101E000003135708FF005808080083120313E0006B
:101E10000330FF0060088A150A12DA268A150A12B2
:101E200083120313E1007F08E000623EE0006108D6
:101E30000318610F003EE1000230E0070318E10AD9
:101E40006008831203138400831383120313611841
:101E50008317831203130008080083120313A500DD
:101E60007F08A600A701831203132608FE00270897
:101E7000FF0025088A110A125A238A150A128312B2
:101E80000313A70A08302702031C332F080083120C
:101E90000313C6007F08C7004608DC3EC6000030BA
:101EA0000318013EC80046088312031384008313FD
:101EB0008312031348188317470883120313800003
:101EC000080083120313CB00DC3ECB000030031864
:101ED000013ECC004B08831203138400831383124A
:101EE00003134C188317831203130008080083168A
:101EF00003136D080A3A031D842F831603136A081F
:101F000083160313ED00882F0A3083160313ED00A8
:101F100008008312031711080A3A031D962F831233
:101F2000031710088312031791009A2F0A308312A7
:101F3000031791000800831203171308031DA32F32
:101F400001309300A62F83120317930108003F343A
:101F500006345B344F3466346D347D3407347F345B
:101F60006F340034831203138B168B1783160313FD
:101F70008112811208008316031381168111011446
:101F800081140115080083160313690808008316DD
:101F90000313E900080083160313EA000800831204
:101FA00003171008080083120317900008000A3472
:101FB00000340034003400340034003408000034AD
:101FC000013400340A340800003400340A34003488
:0A1FD0000034003400340034003403
:02400E00323F3F
:00000001FF
